:100000000C94B9020C9400030C9400030C940003AC
:100010000C9400030C9400030C9400030C94000354
:100020000C9400030C9400030C946E2F0C9440303D
:100030000C94762A0C9400030C9400030C94000397
:100040000C9400030C9400030C9400030C94000324
:100050000C9400030C94EB2A0C9400030C94000302
:100060000C9400030C9400030C9400030C94000304
:100070000C9400030C9400030C9400030C940003F4
:100080000C9400030C9400030C9400030C940003E4
:100090000C9400030C9400030C9400030C940003D4
:1000A0000C9400030C9400030C9400032D052D0503
:1000B0005F055F05AC05CA05DE06DE06D5056E06E2
:1000C0007F067F067E077E079007900787079007C9
:1000D000900790077E077E078C07900790078C0794
:1000E000AD30D430CC31D430CC3120314331CC316F
:1000F0009A31A93100AD9DBD00AC9CBC00AB9BBB4F
:1001000000AA9ABA00A999B900A898B800A797B709
:1001100000A696B600A595B500A494B400A393B329
:1001200000A292B200A191B100A090B0007D6D8DAF
:10013000007C6C8C007B6B8B007A6A8A0079698901
:100140000078688800776787007666860075658521
:100150000074648400736383007262820071618141
:1001600000706080004D3D5D004B3B5B004A3A5A99
:100170000049395900483858004737570046365625
:100180000045355500443454004333530042325245
:100190000041315100403050001D0D2D001C0C2C31
:1001A000001A0A2A00190929001808280017072729
:1001B0000016062600150525001404240013032349
:1001C000001202220011012100100020001E0E2E3C
:1001D000004C3C5C001B0B2B004E3E5E007E6E8E86
:1001E000001F0F2F004F3F5F007F6F8F00AF9FBF3B
:1001F00029001E001F0020002100220023002400EF
:100200002500260027002D002E002A002B001400B8
:100210001A000800150017001C0018000C0012003E
:1002200013002F0030003100396104001600070070
:1002300009000A000B000D000E000F00330034000F
:1002400000002800E1001D001B0006001900050049
:1002500011001000360037003872520000003500DF
:10026000E000E3001459000000002C000000000032
:10027000E60001515000510000004F000000BE0098
:10028000BD000000000000000000BC00AE00BB008C
:10029000A800AA00A900B0000000C35CC45CC65C52
:1002A000C85CCA5C00000000000000000000000004
:1002B0000000000000000000C55CC75CC95CCB5CAE
:1002C000000000000000000000000000000000002E
:1002D000000000000000000000000000000000001E
:1002E000000000000000000000000000000000000E
:1002F00000000000000000000000000000000000FE
:1003000000000000000000000001010101010101E6
:1003100001010202020202020202020303030303BA
:100320000303030404040404040405050505050689
:100330000606060607070707070808080809090947
:10034000090A0A0A0B0B0B0C0C0C0D0D0D0E0E0EF0
:100350000F0F0F1010111111121213131414151581
:1003600016161717181819191A1A1B1B1C1D1D1EF3
:100370001E1F202021222223242425262627282947
:10038000292A2B2C2D2D2E2F303132323334353675
:100390003738393A3B3C3D3E3F4041424344454675
:1003A0004748494A4C4D4E4F505153545556585951
:1003B0005A5B5D5E5F616264656668696B6C6D6FF8
:1003C0007072737577787A7B7D7E8082838587886B
:1003D0008A8C8E8F91939596989A9C9EA0A2A3A5A5
:1003E000A7A9ABADAFB1B3B5B7BABCBEC0C2C4C6A6
:1003F000C9CBCDCFD1D4D6D8DBDDDFE2E4E7E9EB62
:10040000EEF0F3F5F8FAFDFF100344005A00360051
:10041000300052004700420000000E0344005A0022
:100420005400450043004800000004030904090289
:100430003B00020100A0FA090400000103010100D1
:100440000921110100012240000705810308000A6B
:10045000090401000103000000092111010001222B
:10046000B6000705820320000A1201000200000006
:10047000085A44211102000102000105010902A1EC
:100480000185020901A100050919012908150025A6
:100490000195087501810205010930093115812591
:1004A0007F95027508810609381581257F950175AC
:1004B000088106050C0A38021581257F950175080B
:1004C0008106C0C005010980A101850319012AB771
:1004D00000150126B700950175108100C0050C09B3
:1004E00001A101850419012AA002150126A0029587
:1004F0000175108100C005010906A10185050507E8
:1005000019E029E715002501950875018102050705
:10051000190029EF1500250195F0750181020508E4
:100520001901290595057501910295017503910140
:10053000C005010906A101050719E029E7150025F5
:10054000019508750181029501750881010507195A
:100550000029FF150026FF00950675088100050893
:100560001901290595057501910295017503910100
:10057000C00011241FBECFEFDAE0DEBFCDBF04B64E
:1005800003FE27C080912D0690912E06A0912F0684
:10059000B09130068730904BA740B04BD1F4109209
:1005A0002D0610922E0610922F061092300614BEC1
:1005B00084B7877F84BF0FB6F894A89580916000B8
:1005C000886180936000109260000FBEE0E0F8E365
:1005D000099512E0A0E0B1E0EEEAF6E602C005906F
:1005E0000D92AA3AB107D9F726E0AAEAB2E001C013
:1005F0001D92AD32B207E1F70E94DC120C94553324
:100600000C94000081E00E944B220C94382A80E078
:100610000E944B220C941E2A0E94082981FF07C0C9
:100620002FEF4FEF6FEF88E290E00C945C19089584
:1006300081E0089581E008950C941A0308950C94C4
:100640001E031F93CF93DF9300D000D01F92CDB72E
:10065000DEB749835A836B833091AC0289819A81DA
:10066000311114C0662359F0222349F00E94220957
:10067000182F682F89819A810E94CB0803C00E949D
:10068000F608182F69817A81812F04C00E942209FF
:1006900069817A810F900F900F900F900F90DF91EA
:1006A000CF911F910C944C10FC01262F4081518159
:1006B0006281738184810C94210381E00895CF933A
:1006C000DF93EC0160E00E945403BE01DF91CF9103
:1006D0000C941F030E9455110E94E4030E941D22E6
:1006E0000C9492110C948E1108950E946C070E9434
:1006F00074032FEF84E39CE0215080409040E1F7A9
:1007000000C000000C94112B0F931F93CF93DF9325
:100710008C0161E00E945403EC01B8010E941C03AB
:10072000882309F444C0B801CE010E946B268823B7
:10073000F1F1B801CE010E94BD268823C1F1B801B4
:10074000CE010E94E827882391F1B801CE010E94D2
:100750005C25882361F1F8018281882309F1CB357A
:100760008DE5D807C1F050F4C115FCE5DF0781F035
:10077000CF3DDC45A9F40E94330E19C0CC35EDE520
:10078000DE0761F0CD35DD4559F40E94C40C08C088
:100790000E9475030CC00E94CD0C02C00E94D00CB8
:1007A000C801DF91CF911F910F910C94180380E045
:1007B000DF91CF911F910F91089508950C94DD035F
:1007C00081E008950C94E0030895CF93C82F0E9410
:1007D000DE038C2F0E94E203CF910895CF93DF9325
:1007E000CDB7DEB72B970FB6F894DEBF0FBECDBFE7
:1007F0004F83588769877A878B8761110E94F30C32
:100800009E012F5F3F4F86E0F90111928A95E9F72B
:1008100085E0FE013796D90101900D928A95E1F7A6
:1008200089819A814C815D81452B31F09F3F31F464
:1008300091E08F3F19F403C091E001C090E090FF78
:1008400009C049815A816B817C818D819E810E9482
:10085000F30B05C0C9010E945D038111F2CF2B96F5
:100860000FB6F894DEBF0FBECDBFDF91CF910895D4
:10087000FC01808191810E9464090895CF938823AF
:1008800009F450C0C82F8CEF8C0F813AD0F46C2F34
:1008900080910702909108020E947529882349F0EF
:1008A0006C2F80910702909108020E94002A0E94FA
:1008B000180D6C2F80910702909108020E94F52973
:1008C0000CC080E28C0F883058F4C77081E001C002
:1008D000880FCA95EAF70E94D60CCF910C94180D98
:1008E000EBE5EC0FE33040F4F0E0ED5AFD4F808192
:1008F00090E0CF910C943329E8E5EC0FE73150F408
:10090000F0E0EE0FFF1FEB5DFD4F80819181CF91F5
:100910000C944929CD3E30F08C2F0E946913CF9161
:100920000C943B14CF910895882389F19CEF980F84
:10093000913A40F4682F80910702909108020E943A
:10094000002A0DC090E2980F983058F4877091E01B
:1009500001C0990F8A95EAF7892F0E94DC0C0C944C
:10096000180D9BE5980F933020F480E090E00C94F4
:10097000332998E5980F973120F480E090E00C94AB
:1009800049298D3E20F00E94C4130C943B14089515
:100990001F93CF93DF93182FEB010E943E04209703
:1009A00041F08FE99FE00197F1F700C00000219727
:1009B000F6CF812FDF91CF911F910C94940489334E
:1009C00019F060E070E002C060E570E00C94C804CB
:1009D000882321F00E94D60C0C94180D08958823CA
:1009E00021F00E94DC0C0C94180D0895CF92DF9238
:1009F000EF92FF920F931F93CF93DF937C01D62F3B
:100A0000C72FFC011281058102950F700E94AB0C6B
:100A1000882399F0112389F08C2F807F803421F076
:100A200080E28D0F883048F082E00E94680D0E94BD
:100A3000AB0C91E0D82ED92601C0D12CCC2EC2947B
:100A40008FE0C8228C2D90E08C30910508F0B6C163
:100A5000FC01EA5AFF4F0C9447328C2F807FCF70F5
:100A6000882311F0C295C07F112399F0CC2309F49B
:100A700091C180E28D0F883010F0D11104C08C2F0D
:100A80000E94D60C03C08C2F0E94E60C0E94180D09
:100A900081C18D2F0E949404CC2309F48FC180E280
:100AA0008D0F883010F0D11104C08C2F0E94DC0C07
:100AB00003C08C2F0E94EC0C0E94180D7FC18C2F5C
:100AC000807FCF70803211F0C295C07FDD2319F096
:100AD000D130C9F022C0112371F0002341F0013060
:100AE00031F40E94F90C8C2B0E94010D67C10E9409
:100AF000F90C8C2B1DC0002319F0013009F45EC1E4
:100B00000E940E0D25C0112321F0063008F056C1B9
:100B10000EC0053008F052C11BC0112361F0002344
:100B200031F0F701858180FF35C18F7085838C2F6F
:100B30000E94E80443C1002359F0D93309F03BC1B6
:100B4000FFEF07EE13E0F15000401040E1F731C134
:100B50008C2F0E94EF0432C18C2F8695869583706E
:100B600019F0813061F02AC1112321F08D2F9C2FC3
:100B7000937002C080E090E00E94332927C11123C6
:100B800021F08D2F9C2F937002C080E090E00E9496
:100B900049291CC18D2F112319F00E94691302C02D
:100BA0000E94C4130E943B1411C18C2F837009F062
:100BB00047C0111107C12D2F229526952770220FAE
:100BC000220F6D2F6F70862F90E0A0E0B0E0022E14
:100BD00004C0880F991FAA1FBB1F0A94D2F7D4FF25
:100BE00010C04FE050E060E070E004C0440F551FBB
:100BF000661F771F2A95D2F740955095609570959E
:100C000003C040E050E0BA01C695C695C3708A01A2
:100C10009B01082B192B2A2B3B2BC901B801C23091
:100C200049F058F4C13019F00E94E107CBC00E948E
:100C3000CF07C8C00E94F307C5C00E94CD07C2C03D
:100C4000112319F08C2F817001C08695882309F437
:100C5000B9C02D2F229526952770220F220F6D2FB8
:100C60006F70862F90E0A0E0B0E0022E04C0880FE5
:100C7000991FAA1FBB1F0A94D2F7D4FF10C04FE0E0
:100C800050E060E070E004C0440F551F661F771FFE
:100C90002A95D2F7409550956095709503C040E035
:100CA00050E0BA01C695C695C3708A019B01082B16
:100CB000192B2A2B3B2BC901B801C23049F058F43B
:100CC000C13019F00E94A6087DC00E9494087AC025
:100CD0000E94B80877C00E94070874C0CF70112323
:100CE00039F08C2F0E942D088D2F0E94E8046AC0D5
:100CF0008D2F0E94EF048C2F0E944E0863C0D23FBC
:100D000001F128F4D03F41F0D13FA1F03FC0D33FE3
:100D1000F9F0D43F39F13AC0112341F0053008F021
:100D20004DC08C2F8F710E94730848C0063008F0A8
:100D300045C0F7CF112339F08C2F8F710E942D08F9
:100D40003DC01123C9F38C2F8F710E944E0836C00D
:100D5000112329F08C2F8F710E9418082FC00E9438
:100D600013082CC0112349F0CF718C2F0E942D083D
:100D700063E08C2F0E944D0D21C081E00E94680D20
:100D80000230E0F082E00E94680D18C0112331F0BB
:100D9000002391F28D2F0E943E0410C0002399F28F
:100DA000D93349F41FEF27EE33E011502040304093
:100DB000E1F700C000008D2F0E94940488EF8C0D95
:100DC000843020F40E94FC280E94E503DD20C9F055
:100DD0000E94A70C80FD15C0F70112820E94A10C91
:100DE0000E942D08C7010E9422070E94A10CDF91DA
:100DF000CF911F910F91FF90EF90DF90CF900C94C7
:100E00004E08DF91CF911F910F91FF90EF90DF90EF
:100E1000CF9008950F931F93CF93DF93EC016881D8
:100E200079818A810E946F098C010E94CA080E9400
:100E3000BB07B801CE010E94F604DF91CF911F914C
:100E40000F910895CF93DF93EC01988189812B81D5
:100E50003C81232B31F08F3F31F481E09F3F19F427
:100E600003C081E001C080E080FD19C0CE010E9476
:100E7000840381110CC00E94AB0C882381F08A810D
:100E8000882369F082E0DF91CF910C94680DCE0148
:100E90000E940A07CE01DF91CF910C945F03DF918E
:100EA000CF91089580E090E00E94332980E090E0A7
:100EB0000E9449290E94F30C0E94F60C0E94180D12
:100EC0000E946C150C943B148091070290910802CB
:100ED0000E940B2A0C9452070E94E30C0C946407A6
:100EE000E92FE295EF704E2F50E0FA013297EE3085
:100EF000F105B0F4EE59FF4F0C944732803F91F06A
:100F000018F4883E68F40EC0843F51F40BC0883E4C
:100F100048F0813F29F406C093FB882780F90895A3
:100F200080E0089581E00895FC01808191810E9414
:100F300064090E9470070895CF93DF9300D000D01A
:100F40001F92CDB7DEB70F900F900F900F900F90BC
:100F5000DF91CF910895CF93DF9300D000D000D0E0
:100F6000CDB7DEB726960FB6F894DEBF0FBECDBF65
:100F7000DF91CF910895089508950C94BC070C94C7
:100F8000BD070E94BF076093DE027093DF0280936B
:100F9000E0029093E1020C9452070C94C1070F9366
:100FA0001F930091DE021091DF022091E002309148
:100FB000E102602B712B822B932B1F910F910C94CC
:100FC000C1070F931F930091DE021091DF02209161
:100FD000E0023091E10260237123822393231F9169
:100FE0000F910C94C1070F931F930091DE02109193
:100FF000DF022091E0023091E10260277127822711
:1010000093271F910F910C94C1070C94BC070E9469
:1010100005086093DA027093DB028093DC02909300
:10102000DD020C94520760E070E0CB010C940708DD
:101030000F931F9341E050E060E070E08A019B0154
:1010400004C0000F111F221F331F8A95D2F7C90158
:10105000B8011F910F910C9407080F931F9341E063
:1010600050E060E070E004C0440F551F661F771F1A
:101070008A95D2F78091DA029091DB02A091DC028E
:10108000B091DD028A019B01082B192B2A2B3B2BE7
:10109000C901B8011F910F910C9407080F931F937A
:1010A00041E050E060E070E004C0440F551F661F4F
:1010B000771F8A95D2F740955095609570958091ED
:1010C000DA029091DB02A091DC02B091DD028A018C
:1010D0009B01082319232A233B23C901B8011F912F
:1010E0000F910C9407080F931F9341E050E060E0CC
:1010F00070E004C0440F551F661F771F8A95D2F712
:101100008091DA029091DB02A091DC02B091DD02C5
:101110008A019B01082719272A273B27C901B80103
:101120001F910F910C9407080F931F930091DA02FF
:101130001091DB022091DC023091DD02602B712BDB
:10114000822B932B1F910F910C9407080F931F93E1
:101150000091DA021091DB022091DC023091DD0275
:1011600060237123822393231F910F910C9407080E
:101170000F931F930091DA021091DB022091DC02A1
:101180003091DD0260277127822793271F910F91ED
:101190000C94070808952EE0929F800D1124E82FEB
:1011A000E695E695E695877051E001C0550F8A9562
:1011B000EAF785E0E89FF0011124E355FD4F20E0B8
:1011C00030E070E04081CB01022E02C096958795F9
:1011D0000A94E2F78170819584278523842781937F
:1011E0002F5F3F4F2530310569F708952EE0929F1C
:1011F000800D1124682F669566956695982F9770D7
:1012000085E0689FB001112440E050E080E0FB01E0
:10121000E40FF51FE355FD4F208130E0092E02C099
:10122000369527950A94E2F721703327042E01C0E2
:10123000220F0A94EAF7822B4F5F5F4F453051052A
:1012400031F70895BF92CF92DF92EF92FF920F9302
:101250001F93CF93DF938C01C090DA02D090DB0212
:10126000E090DC02F090DD028091DE029091DF02DE
:10127000A091E002B091E102C82AD92AEA2AFB2A09
:10128000CFE1D0E0D701C6010C2E04C0B695A795DA
:10129000979587950A94D2F780FD04C0219790F71F
:1012A000B12C07C0BC2EB8018C2F0E945F10019793
:1012B000A9F38B2DDF91CF911F910F91FF90EF90AC
:1012C000DF90CF90BF900895CF93DF93EC010E9401
:1012D0002209BE010E945F10DF91CF9108951F93F4
:1012E000CF93DF93EB019091AC02992321F0CB01D6
:1012F0000E94640913C0882349F0CB010E9422098F
:10130000182F682FCE010E94CB0804C0CB010E9489
:10131000F608182FBE01812F0E945F10DF91CF9138
:101320001F9108951F93CF93DF93C091E20216E0BF
:101330008091E302C81799F0D0E01C9FF0011D9F37
:10134000F00D1124EC51FD4F408151816281738178
:10135000848195810E94AB072196C770E9CFDF9108
:10136000CF911F91089540911403509115036091FE
:1013700016037091170380911803909119030C9430
:10138000AB070F931F93CF93DF938091190382953F
:101390008F7009F05DC080911603882309F458C04E
:1013A0008091E2021091E3026091140370911503A1
:1013B000C0911703D091180391E06F3F09F090E0BE
:1013C000292F06E0811709F443C0209721F07F3FC1
:1013D00021F030E003C031E001C0322F90E030FD59
:1013E00034C0089FF001099FF00D1124DF01AC51BA
:1013F000BD4F11963C911197371327C03C9136137E
:1014000024C012963C91129731111FC013964D9132
:101410005C9114974C1B5D0B483C5105B0F48091D6
:1014200019038F70806180931903E751FD4F80810C
:101430008F708061808384E193E00E942207DF91B6
:10144000CF911F910F910C94920901968770BACF9A
:10145000DF91CF911F910F9108959F92AF92BF920C
:10146000CF92DF92EF92FF920F931F93CF93DF9370
:10147000CDB7DEB761970FB6F894DEBF0FBECDBF14
:101480008C0185E0F801DE011D9601900D928A9590
:10149000E1F7F801E2809091140360911503209127
:1014A0001703309118032115310531F06F3F31F4E6
:1014B00081E09F3F19F403C081E001C080E0F82F74
:1014C000F1709F2E80FD3FC1F80140815181A380C2
:1014D000B48084E1C82E83E0D82EF0901603F50185
:1014E000E21BF30BFF2009F4D9C080911903E83CFB
:1014F000F10508F095C0282F207F09F052C056133F
:1015000013C0491311C0FE2CE1100EC08F70806112
:10151000809319030E94B309C6010E94220780919B
:101520001903F80185834CC1AB2831F05F3F31F4DA
:1015300081E04F3F19F403C081E001C080E080FDED
:1015400003C081E08E2502C080E090E0F82FF170AA
:10155000FF2E80FF1CC08091E2022091E30236E062
:10156000821709F40BC190E0389FF001399FF00D0C
:101570001124EC51FD4F6181561306C06081461362
:1015800003C06281E61203C001968770E9CFFE2C8A
:10159000EE2009F415C1809119038160809319032D
:1015A00054C0561306C0491304C0E11002C0F8012C
:1015B00099C0C8010E949407882361F1EE2051F17F
:1015C00020911903822F82958F7090E0029774F01A
:1015D000809114039091150398878F831986BB8699
:1015E000AA862C87CE0107960E94220786E0F80182
:1015F000A4E1B3E001900D928A95E1F70E94C10940
:101600000E94B3090AC0561711F1C8010E9494073D
:1016100081112CC0C8010E942207FF24F394D0C07E
:10162000282F207F81F77A2DB98AA88A6E2D898983
:101630000E949C0784E193E00E94220786E0F60165
:1016400011928A95E9F70E94B309F12CB9C04913A8
:10165000DCCFE110DACFF8018583C8010E942207B0
:1016600086E0F60111928A95E9F7AAC0EE2091F280
:1016700020911903822F82958F7090E002970CF4CD
:10168000B5CF80911403909115039A8389831B82AF
:10169000BD82AC822E83CE010196A6CFE83CF10537
:1016A00008F044C0FE2CEE2009F4B4CF561330C02D
:1016B00049132EC02091190320FD21C0822F82954D
:1016C0008F70482F50E041155105C9F0F80125836E
:1016D0004F30510541F08F5F982F9295907F822F68
:1016E0008F70892B8583C8010E94220786E0F8014C
:1016F000A4E1B3E001900D928A95E1F73CC086E049
:10170000F801A4E1B3E001900D928A95E1F758C089
:10171000C8010E949407811169CF809119038160EB
:1017200080931903C8010E9422074AC07A2DB98A02
:10173000A88A6E2D89890E949C0786E0F601119285
:101740008A95E9F718C0EE2009F464CFC8010E9419
:101750009407F82E882309F45DCF86E0F801A4E110
:10176000B3E001900D928A95E1F784E193E00E9445
:1017700038040E94C1090E94B30922C04D875E87C8
:101780008D859E850E946409292F22952F70223015
:1017900028F49F7039F0811105C00BC0243028F463
:1017A0009F7049F4805E883020F0C8010E942207B3
:1017B0009F2CF92C05C0F8019581907F99F7F9CFFE
:1017C0008F2D61960FB6F894DEBF0FBECDBFDF91AF
:1017D000CF911F910F91FF90EF90DF90CF90BF902E
:1017E000AF909F9008951F93CF93DF93CDB7DEB74F
:1017F0002C970FB6F894DEBF0FBECDBF4F8358872E
:1018000069877A878B879C87CE0107960E942D0A6D
:101810008823D1F09F8188852A853B85232B31F051
:101820008F3F31F481E09F3F19F403C081E001C094
:1018300080E080FD47C04F81588569857A858B851A
:101840009C850E94AB073EC086E0FE013796DE0114
:10185000119601900D928A95E1F7FF81E8856A85DE
:101860007B856115710531F0EF3F31F481E0FF3F79
:1018700019F403C081E001C080E080FD23C0209105
:10188000E30230E0C9010196877099274091E20296
:1018900050E084179507F1F1F983EA837D836C8327
:1018A00096E0929FD001939FB00D1124AC51BD4F93
:1018B000FE01319601900D929A95E1F78093E30233
:1018C0000E94920916E08091E2029091E30289174A
:1018D00071F1189FC00111248C519D4F0E942D0A57
:1018E000882329F1E091E2021E9FF0011124EC51BE
:1018F000FD4F4081518162817381848195810E9475
:10190000AB078091E20290E001968770992780935F
:10191000E202D9CF0E946C071092E3021092E20219
:10192000E4E1F3E086E0DF011D928A95E9F72C9669
:101930000FB6F894DEBF0FBECDBFDF91CF911F91E0
:10194000089580911A0385958595859508958091D0
:101950001A038770089590911A03977081E009F433
:1019600080E008959091400492FB222720F92817E7
:1019700051F080FB92F99093400480913F04909144
:1019800040040C94AF0D08958091400482FB882799
:1019900080F991E089270C94B20C81E00C94B20C90
:1019A00080E00C94B20C80913E03089590913E0328
:1019B000892B80933E030895809590913E0389235F
:1019C00080933E03089510923E03089590913D0345
:1019D000892B80933D030895809590913D03892341
:1019E00080933D03089510923D03089510923C03A7
:1019F000089580911B03089508950C94FC0C0C9499
:101A0000FD0C9091400492FD08C090911B03981723
:101A100021F080931B030C94FF0C089580911B030D
:101A2000882329F010921B0380E00C94FF0C08958A
:101A3000E0910702F091080280913E038083E091DB
:101A40000702F0910802908180913D03892B8083E9
:101A5000E0910702F0910802908180913C03892B6C
:101A6000808380911B03882381F0E0910702F0912D
:101A700008029081892B808380910702909108024F
:101A80000E945F2981110E940E0D809107029091A2
:101A900008020C940B290C94FC0C9091400492FDCC
:101AA00010C098E0899F90011124262B20931A03DF
:101AB0000E942D0880911A038595859585950C9433
:101AC0004B0D0C942D0810921A0380E00C944B0DD2
:101AD00020911A038095822380931A03982F977080
:101AE00041F430E0482F082E000C550B2417350721
:101AF00021F49091400492FF07C0859585958595C6
:101B00000E944E080C94630D08956FEF7FEF80E004
:101B100090E00C942D3380E090E00E94F93221E0B7
:101B2000893E9E4F09F020E0822F089582E090E0E8
:101B30000C94F13283E090E00C94F132CF9384E086
:101B400090E00E94F132C82F82E290E00E94F132D0
:101B50002C2F30E0A901582BCA01CF910895CF93C3
:101B6000C92F682F84E090E00E940F336C2F82E22F
:101B700090E0CF910C940F33AB01BC018FE090E06B
:101B80000C942133AB01BC0183E190E00C94213330
:101B900060E070E0CB010C94C20D60E070E0CB011E
:101BA0000E94BC0D0C94C80D69EE7EEF80E090E0C1
:101BB0000E942D3360E082E090E00E940F3360E0ED
:101BC00083E090E00E940F331092DE021092DF0259
:101BD0001092E0021092E10260E084E090E00E9446
:101BE0000F3360E082E290E00E940F3360E085E016
:101BF00090E00E940F3360E086E090E00E940F3397
:101C00006FEF87E090E00E940F3340E050E0BA01B0
:101C100088E090E00E94213360E08DE090E00E9437
:101C20000F3340E050E0BA0188E190E00E94213398
:101C300060E087E190E00E940F3340E050E0BA019D
:101C40008CE190E00E94213360E070E080E290E05F
:101C50000E942D3340E050E0BA0188E190E00E94FC
:101C600021330C94CD0D0C94D40D682F8EE090E0B0
:101C70000C940F330E94B42A60934E0370934F0369
:101C8000809350039093510360934A0370934B03E6
:101C900080934C0390934D03089585B7806885BF6A
:101CA00085B7806885BF089581E008950C94540E2F
:101CB00008950C94580E0C94580E0C945B0E0C94D2
:101CC000580E0C945F0E0C94580E0E944D0E8BE330
:101CD00091E10E94352B0E94630E0C94610E0E94CC
:101CE000590E0C94580E0E949F2A0E9443120C9485
:101CF0005D0E6F927F928F929F92AF92BF92CF9222
:101D0000DF92EF92FF920F931F93CF93DF93CDB7A4
:101D1000DEB72A970FB6F894DEBF0FBECDBF0E9484
:101D2000561281110E943A0E30E4832E33E0932E36
:101D300000E010E0E02E802F0E9479115C01F40198
:101D4000619071904F016826792661147104B1F495
:101D50000F5F1F4F0530110569F78FEF89838A8365
:101D60001B820E94A82A8160782F9D838C834981E1
:101D70005A816B818D810E94EE0343C08091520392
:101D800081FD0E948211F12CCC24C394D12CC3017B
:101D90008C219D21892B71F10E94560EAC20BD2013
:101DA0008823A1F0FE82EF8281E0A114B10409F43E
:101DB00080E088870E94A82A8160782F9A87898787
:101DC0004E815F8168858A850E94EE03000F111F96
:101DD000F801E05CFC4F80819181C826D926D18230
:101DE000C08241E0AB2809F440E06F2D8E2D0E94A7
:101DF000581F07C0F394CC0CDD1CFEE0FF12C7CFC8
:101E0000A7CF0E945C210E9459140E94FC28909147
:101E10003F038917D1F00E94FC2880933F032A9644
:101E20000FB6F894DEBF0FBECDBFDF91CF911F91EB
:101E30000F91FF90EF90DF90CF90BF90AF909F9069
:101E40008F907F906F900C94E5032A960FB6F894CC
:101E5000DEBF0FBECDBFDF91CF911F910F91FF90DD
:101E6000EF90DF90CF90BF90AF909F908F907F903A
:101E70006F900895CF93DF930E946410EC01811559
:101E800021E5920708F045C0811530E5930708F079
:101E900094C0883E910528F5803E910508F0F8C071
:101EA000883A910570F4853A910508F07CC081303C
:101EB000910509F475C008F4E8C0049708F0E8C07B
:101EC000E4C08F3B910508F0E0C0C85AD0E0CC0FC9
:101ED000DD1FCA5ADD4F0990D881C02DCE01946410
:101EE000D8C0811540E2940758F4811551E0950758
:101EF00008F0CEC08D3E910508F4C7C09065C9C0FA
:101F0000C11580E4D80708F4C0C0DF70CE01906A24
:101F1000C0C0811525E59207A8F4811534E5930723
:101F200008F095C0811543E5940708F07BC0811542
:101F300052E5950708F061C0D82FCC27CE01816FFC
:101F4000906AA7C0C11589E5D807A0F4C11528E596
:101F5000D20708F082C0C11536E5D30708F095C056
:101F60008C2F0E94F8108F7190E0D82FCC27CE01D3
:101F700090628FC0C1154AE5D40708F474C0CE0141
:101F800090568115904208F080C08D2F8F710E946D
:101F9000F810DD27D0628F71AE01582BCA0179C0CD
:101FA00081E090E076C0C55AD0E0CC57DD4F888103
:101FB000C82FD0E0CE0190646CC074E096958795F0
:101FC0007A95E1F7282F23703C2F337081E090E061
:101FD00002C0880F991F3A95E2F79C68AC01522B1A
:101FE0009A019C2F9F709695969550E2959FE001DF
:101FF0001124C9018C2B9D2B4CC08370992721E0A3
:1020000030E002C0220F331F8A95E2F79C2F96958D
:10201000969580E2989FE0011124C22BD32BCE012C
:102020009C6837C08370992721E030E002C0220FFE
:10203000331F8A95E2F79C2F9695969540E2949FE0
:10204000E0011124C22BD32BCE019A6822C0D82FD5
:10205000CC27CE01846F906A1CC0DC2FCC27CE0128
:10206000806F906A16C08C2F8F700E94F81094E0D9
:10207000D695C7959A95E1F7CF70D0E0DC2FCC27A5
:10208000D0699E01282BC90104C080E090E001C006
:10209000CE01DF91CF91089526E4829FC0011124E3
:1020A000FC012EE0729FE00DF11D1124E60FF11DE1
:1020B000EE0FFF1FE051FE4F8591949108950E940D
:1020C0004C100E943A0F08958238910569F1B0F4DE
:1020D0008133910509F46DC048F48932910509F402
:1020E00063C08A32910509F469C00895853391056A
:1020F00009F455C089339105B9F00895833E9105DF
:1021000069F138F4803E9105B1F0823E910509F104
:102110000895863E9105A9F1873E9105B9F1843E67
:10212000910509F064C023C020913F0420FD4FC0F9
:1021300021FD4DC0089580913F0480FD44C08091F1
:10214000400480FF44C080913F0484FD42C083EE80
:102150004DC080913F0482FF38C0F5CF80913F048D
:1021600082FD33C08091400480FD31C0ECCF80916E
:10217000400481FF32C080913F0484FD2AC087EE75
:1021800035C080913F0483FF26C0F5CF80913F0486
:1021900083FD21C08091400481FD1FC0ECCF809160
:1021A0003F0485FD1CC01DC080913F0485FD19C002
:1021B00016C080913F0486FD16C017C080913F0471
:1021C00086FD13C010C089E311C082EE0FC080EEFF
:1021D0000DC080E00BC086EE09C084EE07C089E226
:1021E00005C085E303C08AE201C081E390E0089561
:1021F00090913F0492FF0DC0282F2871283019F4C8
:10220000877F846006C0282F2471243011F48B7FCF
:10221000886093FF0DC0282F2871283119F4877E1C
:10222000846106C0282F2471243111F48B7E8861CB
:102230002091400420FF0DC0382F3871383019F438
:10224000877F816006C0382F3171313011F48E7F65
:10225000886021FF0DC0282F2871283119F4877E4E
:10226000816106C0282F2171213111F48E7E886191
:1022700094FD877E089580E008950C94850D0E945A
:1022800056128FEB9DE50197F1F700C000000E9408
:10229000561280E00E94791180FF04C00E943D1117
:1022A0000C94112B08950C943F110E948B0D8111F9
:1022B00002C00E94330E0E94960D809352030E942A
:1022C0009E0D9093400480933F040E9453110E94FE
:1022D0009A0D682F70E080E090E00E94CD07609139
:1022E000DA027091DB028091DC029091DD020C94A5
:1022F0000508E82FF0E0EE0FFF1FE55BFB4F808144
:1023000091810895089580EA8A95F1F7089500C0B3
:1023100008950C94831108950C948B110C948C11D6
:102320000C948B110C949011F894E82FE295EF70B7
:10233000F0E031A1282F2F7081E090E001C0880FDC
:102340002A95EAF7982F9095932391A392A1892B30
:1023500082A3789408950F931F93CF93DF93C5E9D9
:10236000D2E089918F3F11F00E94941182E0CA3926
:10237000D807B9F7C7E8D2E005E912E089918F3FA5
:1023800011F00E9494110C171D07C1F7DF91CF9136
:102390001F910F910895AF92BF92CF92DF92EF926B
:1023A000FF920F931F93CF93DF938C01C62FD0E042
:1023B000CE018B569D4F6C01DC019C919F3F09F42F
:1023C00057C0B62EF894E92FE295EF70F0E081A1A6
:1023D0009F7021E030E001C0220F9A95EAF7822B2E
:1023E00081A382A12095282322A378940E9487119B
:1023F000E7E8F2E020E030E0E12CF12C41E050E0B1
:1024000081918F3FC1F0A82FA295AF70B0E0909658
:102410006C9170E08F70DB0102C0B595A7958A952D
:10242000E2F7A0FD08C0CA01022E02C0880F991F62
:102430000A94E2F702C080E090E0E82AF92A2F5FD0
:102440003F4F2E303105E1F6F60180818F3F11F0CC
:102450000E94941161E0E114F10409F460E08B2D15
:102460000E948911CC0FDD1FC00FD11FF982E882B5
:10247000DF91CF911F910F91FF90EF90DF90CF9060
:10248000BF90AF9008950E94AB11E1E4F4E0ABE49B
:10249000B4E0119211921D921D9284E0EB34F80782
:1024A000C1F785E00E94A1120C946A03FF920F937A
:1024B0001F93CF93DF93CDB7DEB72A970FB6F8946B
:1024C000DEBF0FBECDBF8E010F5F1F4F8AE0F80148
:1024D00011928A95E9F7F12C6F2DC8010E94CB115A
:1024E000F394F5E0FF12F8CF4AE050E0B80181E440
:1024F00094E00E94CB32FF24F394009709F4F12C6E
:10250000892B41F08AE0F801A1E4B4E001900D923A
:102510008A95E1F72F2D45E06BE474E081E494E0C7
:102520000E94A2120E9472038F2D2A960FB6F89471
:10253000DEBF0FBECDBFDF91CF911F910F91FF90F6
:1025400008950895FF920F931F93CF93DF93F82E72
:10255000092F162FD72FC42F222349F081E0809313
:1025600055030E94A82A90935403809353038091AB
:1025700055038823D9F080915303909154030E940E
:10258000C02A039798F0EF2DF02FA12FBD2F80E0E8
:1025900090E04C2F50E08417950734F4219131914D
:1025A0002D933D930196F7CF10925503DF91CF9174
:1025B0001F910F91FF9008950E941D2A0E94AB2C3D
:1025C0000E94C42C0E94D62C0E946F0EFBCF8091DB
:1025D0005C0380FF0BC060910E0285E0689FB00134
:1025E000112475956795759567952BC081FF09C076
:1025F00060910E0285E0689FB00111247595679582
:1026000020C082FF07C060910E0285E0689FB00184
:10261000112417C090915B039923D1F060910D02B2
:10262000961788F720910E0285E0289F90011124CB
:10263000929FA001939F500D112470E0CA010E9447
:1026400014326038710540F46115710519F406C043
:1026500065E070E0862F08958FE7089581E0089582
:1026600080915C0380FF08C060910A0270E075955C
:1026700067957595679521C081FF06C060910A0234
:1026800070E07595679519C082FF04C060910A02D9
:1026900070E010C090915A03992399F0609109025B
:1026A0009617A0F780910A02899FC001112470E05B
:1026B0000E9414326038710540F46115710519F4F7
:1026C00006C061E070E0862F08958FE7089581E0ED
:1026D00008958D3E21F40E94E712819504C08E3E3C
:1026E00029F40E94E7128093600308958F3E21F43D
:1026F0000E94E712819504C0803F29F40E94E712EE
:1027000080935F030895893F19F40E94301305C038
:102710008A3F31F40E9430138195809361030895BC
:102720008B3F21F40E943013819504C08C3F29F423
:102730000E9430138093620308959FE0980F9830B1
:1027400078F421E030E0A90102C0440F551F9A95AA
:10275000E2F7CA0190915E03892B80935E0308958E
:102760008D3F21F480915C0381600BC08E3F21F48A
:1027700080915C03826005C08F3F29F480915C03E7
:10278000846080935C0308958D3E39F490916003DA
:1027900097FF35C01092600359C08E3E29F4909186
:1027A00060031916BCF32BC090915F038F3E29F490
:1027B00097FF25C010925F0349C0803F19F4191696
:1027C000CCF31DC090916103893F29F41916BCF424
:1027D000109261033BC08A3F19F497FF10C0F8CFF5
:1027E0008B3F39F49091620397FF09C01092620306
:1027F0002DC08C3F21F4909162031916BCF39FE029
:10280000980F983080F421E030E0A90102C0440F15
:10281000551F9A95E2F7CA01809590915E0389232E
:1028200080935E0313C08D3F21F480915C038E7F03
:102830000BC08E3F21F480915C038D7F05C08F3FDC
:1028400029F480915C038B7F80935C0380915F030C
:10285000811106C080916003811102C010925B0358
:1028600080916103811106C080916203811102C0D1
:1028700010925A0308950E94A82A20915F03211103
:1028800004C020916003222321F090935903809388
:10289000580320916103211104C020916203222377
:1028A00021F090935703809356038DE593E00C94A9
:1028B0002529EF92FF920F931F93CF93DF9300D0C0
:1028C00000D000D0CDB7DEB786E0EDE5F3E0DE0165
:1028D000119601900D928A95E1F7E0905F03F090D8
:1028E0006003009161031091620310925F031092E4
:1028F00060031092610310926203E11003C0FF2095
:1029000009F45DC080915803909159030E94C02A38
:10291000AC0190915B03992339F020910F0230E0D4
:102920002417350758F04BC0209110028AE0289FE9
:10293000900111242417350718F041C09F3F19F06A
:102940009F5F90935B03EE2061F00E94E7121E14DC
:1029500014F09FEF01C091E0989F902D1124909367
:102960005F03FF2061F00E94E7121F1414F09FEF35
:1029700001C091E0989F902D1124909360033091B5
:102980005F033323E1F0209160032223C1F045EB84
:102990003403C0011124992319F090935F0303C0FD
:1029A00081E080935F0335EB2303C0011124992359
:1029B00019F09093600303C081E0809360030111DC
:1029C00003C0112309F45DC0809156039091570311
:1029D0000E94C02AAC0190915A03992339F02091AA
:1029E0000B0230E02417350758F04BC020910C0241
:1029F0008AE0289F900111242417350718F041C060
:102A00009F3F19F09F5F90935A03002361F00E944B
:102A10003013101614F09FEF01C091E0989F902D95
:102A2000112490936103112361F00E943013111659
:102A300014F09FEF01C091E0989F902D1124909386
:102A40006203309161033323E1F02091620322237A
:102A5000C1F045EB3403C0011124992319F0909380
:102A6000610303C081E08093610335EB2303C00160
:102A70001124992319F09093620303C081E080939D
:102A8000620380915F0381110BC08091600381110B
:102A900007C080916103811103C08091620381119D
:102AA0000E943B14EB82FC820D831E8386E0FE01B4
:102AB0003196ADE5B3E001900D928A95E1F7269647
:102AC0000FB6F894DEBF0FBECDBFDF91CF911F913F
:102AD0000F91FF90EF900895EDE5F3E086E0DF01C0
:102AE0001D928A95E9F710925B0310925A03109297
:102AF0005C030895EF92FF920F931F93CF93DF93A0
:102B00008B01682F11110AC0442329F0E82FF0E04F
:102B1000E85FFC4F6491762F862F75C0212F30E03F
:102B2000E82FF0E0442321F0E85FFC4FE491F0E06F
:102B300046E0049FC0011124CFEFD0E0BE010E9407
:102B400000324BEA4603C001479F900D1124800FCD
:102B5000911D800F911D982F990F890FAE01421B77
:102B6000530B4E9FD0014F9FB00D5E9FB00D1124AF
:102B70009B2F189FA0011124452F55278E01041B60
:102B8000150B0E9FA0010F9F500D1E9F500D11247D
:102B90007E01E81AF108E29E8001E39E100DF29E8C
:102BA000100D1124212F3327C21BD30BCE9F900170
:102BB000CF9F300DDE9F300D112462307105A9F0DA
:102BC00048F46115710569F061307105C9F48B2F06
:102BD000752F0DC06430710581F058F066307105B5
:102BE00079F47E2F8B2F932F0DC0832F7B2F9E2F59
:102BF00009C08E2F7B2F952F05C08E2F732F02C0FB
:102C00007E2F852F692FDF91CF911F910F91FF901C
:102C1000EF90089541E00E947A15089520E030E099
:102C2000869F212D969F200D311D1124C9010895E5
:102C3000BC018230910508F40895613E8EE1780769
:102C400048F49B0195E0369527959A95E1F748E081
:102C5000420F01C04FEF91E0242F30E0290F311DCA
:102C600035952795229FF001239FF00DF00D11243B
:102C70006E177F0718F44FEF420F04C02F3F39F053
:102C800091E0920F491740F78FEF890F08958FEF6A
:102C90000895482F982F46FD9095E92FEF739F7068
:102CA00046FD9F5FE295EF70EE0FF0E0E656FD4FB8
:102CB0002181299F802D212D112482958F702295AD
:102CC000207F822B3081982F930F892F47FD81958C
:102CD00080580895E42FF0E0EE0FFF1FE65BFE4FF3
:102CE000408134EE439F412D1124E82FF0E050E065
:102CF000445E5F4FDA01A21BB1099D01B7FF03C01B
:102D000031952195310993E0220F331F9A95E1F710
:102D1000AF01421B530B9A0157FF02C020E030E085
:102D2000582F259F212D1124822F0895622F089559
:102D3000E42FF0E0EE0FFF1FE65BFE4F6081621BA9
:102D40000895E42FF0E0EE0FFF1FE55BFE4F60817A
:102D5000621B0895A22F50E0FA01EE0FFF1FE55B02
:102D6000FE4F9081905297FD9195440F551FFA01A7
:102D7000E65BFE4F3081232F30E02A1B3109290FFB
:102D8000311D97FD3A95620F0895EF920F931F93AF
:102D900093E0099F80011124159507956E2D600F12
:102DA0001F910F91EF9008950F93CF93DF93D72F3B
:102DB000C82F47FD4195E8E3F0E0CF01841B91095E
:102DC00047FD9395889FB001899F700D700D112468
:102DD000229FC001239F900D900D1124860F971FF5
:102DE0000E941816682F660F860F682F600F7D2FC0
:102DF0008C2FDF91CF910F9108950F931F93522F36
:102E000010E0F801EE0FFF1FE55BFE4FE081F0E000
:102E1000B0979F015203D001539FB00D1124000FB2
:102E2000111FF801E65BFE4F008110E00057110909
:102E300040039001419F300D11242A0F3B1F37FFA3
:102E400002C021583F4F220F232F221F330B620F46
:102E50001F910F9108950F931F93522F10E0F801C7
:102E6000EE0FFF1FE55BFE4FE081F0E0B097EE0F45
:102E7000FF1F9F015203D001539FB00D1124000F7B
:102E8000111FF801E65BFE4F008110E000571109A9
:102E9000000F111F40039001419F300D11242A0F94
:102EA0003B1F37FF02C021583F4F220F232F221F05
:102EB000330B620F1F910F9108950F931F9310E032
:102EC000F801EE0FFF1FE65BFE4F9081905797FDD4
:102ED0009195000F111FF801E55BFE4FE081F0E0D6
:102EE000B097DF01AA0FBB1F8D010E0F1F1F20031C
:102EF000D001219FB00D1124E8E3F0E0E91BF109B6
:102F000097FDF3959F01220F331F89010E0F1F1F9D
:102F100040039001419F300D11242A0F3B1F37FFC2
:102F200002C021583F4F220F232F221F330B620F65
:102F30001F910F9108950F931F93CF93DF93D62F77
:102F4000072F182FC42F822F0E944916EC2FF0E074
:102F5000EE0FFF1FE65BFE4F90819058890F87FDB3
:102F60008195880F682F2CE0629F612D11246D0FD1
:102F7000702F812FDF91CF911F910F910895E42F32
:102F8000F0E0EE0FFF1FE65BFE4F9081921B97FD76
:102F90009195292F38E1239F212D1124620F089547
:102FA0004095282F429F412D1124842F089522E817
:102FB000241B08F420E0620F0895FC019B01009798
:102FC00021F477FF2BC080E80895AC0197FF04C07F
:102FD00044275527481B590BB901640F751F37FD4E
:102FE0000CC0241B350BC901A5E0880F991FAA95B9
:102FF000E1F70E94143280E20CC0CB0165E0880F3B
:10300000991F6A95E1F7BA01621B730B0E94143293
:1030100080E6861BF7FF03C08195089580E0089540
:10302000FF920F931F93CF93DF93F62ED72F182F76
:10303000C901C12FC01BBA010E94DD17982F990F3B
:10304000890FC81B2C2F219F212D1124822F6F2D1A
:103050007D2FDF91CF911F910F91FF900895EF92F7
:103060000F931F93CF93DF93D62FC72F182FC9012C
:103070000E19010FBA010E94DD17081B202F219F96
:10308000212D1124822F6D2F7C2FDF91CF911F9145
:103090000F91EF9008950F93CF93DF93D72FC82F01
:1030A000C901BA010E94DD17682F600F7D2F8C2F98
:1030B000DF91CF910F910895EF920F93CF93DF930C
:1030C000D72FC82FC9010E19BA010E94DD17602F32
:1030D000681B7D2F8C2FDF91CF910F91EF9008957A
:1030E0000E940A1608951F93CF93DF935FEF580F46
:1030F000A1E0A80F4FEF460F91E0960FC82FD0E048
:10310000461780F42EE02C9FF0012D9FF00D112426
:10311000EE56FC4FE40FF11D208130E1230F08F43F
:103120002FEF2083262F30E07EE07C9FF0017D9FF3
:10313000F00D1124EE56FC4FEF01C20FD31F788122
:1031400010E2710F08F47FEF78839E3040F4E90FAE
:10315000F11D708110E1710F08F47FEF7083A530CD
:1031600070F5B0E0461780F47EE07A9FF0017B9F17
:10317000F00D1124EE56FC4FE40FF11D70811DE09F
:10318000710F08F47FEF70837EE07A9FF0017B9FE0
:10319000F00D1124EE56FC4FDF01A20FB31F7C91FE
:1031A00010E1710F08F47FEF7C939E3040F4E90F3B
:1031B000F11D70811DE0710F08F47FEF70835817C7
:1031C00078F5A52FB0E0461780F48EE08A9FF001D5
:1031D0008B9FF00D1124EE56FC4FE40FF11D408142
:1031E0005DE0450F08F44FEF40838EE08A9FF001C9
:1031F0008B9FF00D1124EE56FC4FDF01A20FB31F81
:103200002C9130E1230F08F42FEF2C939E3040F4E3
:10321000E90FF11D20813DE0230F08F42FEF2083FB
:10322000DF91CF911F91089546E050E06CE170E08E
:1032300085E594E00C94E13246E050E06CE170E00A
:1032400085E594E00C94FF32E5E5F4E085E28083C7
:103250008091220290912302A09124028183928383
:10326000A3838FE784838FEF85830C941C1980E000
:1032700008950F931F93CF93DF93C82FD62F8A0102
:103280000E9437199EE0C99FF0011124EC5FFE4FA8
:10329000ED0FF11D90819F3F29F0F801E80FF11D1E
:1032A00090838F5FDF91CF911F910F910895E091EF
:1032B000A802F091A9020994E091A402F091A5025C
:1032C00009944F925F926F927F928F929F92AF92EA
:1032D000BF92CF92DF92EF920F931F93CF93DF9322
:1032E0002C013B01FC01C0818DE0C89FC02D112441
:1032F000DDE0DC0FD03408F0DFE36091590466951F
:1033000080915B0490915C040E940E16182FCD17DB
:1033100008F044C08C2E912CF401E853FE4F9081AC
:10332000F20181818923C1F1F401EE0FFF1FE65BF9
:10333000FE4FC080D12CF0E7CF1AD108F401EE0F78
:10334000FF1FE55BFE4FA080B12C80E2A81AB108F8
:10335000CC9C9001CD9C300D300D1124AA9CC00155
:10336000AB9C900D900D1124820F931F0E94181694
:10337000082F609156047091570480915804E12EF3
:103380009501A601F30109950E947018462F282F78
:10339000672FC4010E945C19CF5FB9CF81E0DF3392
:1033A00008F080E0DF91CF911F910F91EF90DF90B7
:1033B000CF90BF90AF909F908F907F906F905F90D5
:1033C0004F9008956FE278E10C94611965EC76E115
:1033D0000C9461196CE578E10C946119AF92BF927D
:1033E000CF92DF92EF92FF920F931F93CF93DF93D1
:1033F0006C015B01FC01C0818DE0C89FC02D1124D0
:10340000DDE0DC0FD03408F0DFE36091590466950D
:1034100080915B0490915C040E940E16182FCD17CA
:1034200078F5EC2EF12CF701E853FE4F9081F60170
:103430008181892319F1F701EE0FFF1FE55BFE4F34
:10344000208130E020523109F701EE0FFF1FE65BCB
:10345000FE4F408150E040575109609156047091F1
:10346000570480915804012FF50109950E947018A6
:10347000462F282F672FC7010E945C19CF5FCFCF3F
:1034800081E0DF3308F080E0DF91CF911F910F9151
:10349000FF90EF90DF90CF90BF90AF90089560E1E4
:1034A00078E10C94EE1964ED76E10C94EE196BE47E
:1034B00078E10C94EE19BF92CF92DF92EF92FF92D7
:1034C0000F931F93CF93DF938C017B01FC01C0818D
:1034D0008DE0C89FC02D1124DDE0DC0FD03408F052
:1034E000DFE3609159046695669521E0620F08F468
:1034F0006FEF80915B0490915C040E940E16B82ED1
:10350000CD17F0F4CC2ED12CF601E853FE4F90816C
:10351000F8018181892391F06091560470915704DC
:10352000809158042B2D4C2FF70109950E9470189B
:10353000462F282F672FC6010E945C19CF5FE0CF6E
:1035400081E0DF3308F080E0DF91CF911F910F9190
:10355000FF90EF90DF90CF90BF9008956AE676E1FC
:103560000C945B1A66E976E10C945B1A68E976E1E3
:103570000C945B1A61EA76E10C945B1A6AEA76E1D4
:103580000C945B1A6BE977E10C945B1A6FEB77E1B3
:103590000C945B1A7F928F929F92AF92BF92CF92C0
:1035A000DF92EF92FF920F931F93CF93DF936C0103
:1035B0005B01FC01C0818DE0C89FC02D1124DDE0BE
:1035C000DC0FD03408F0DFE360915904669566950E
:1035D00080915B0490915C040E940E16182F80E489
:1035E000810F0E94491690E8F92EF80E812F0E9453
:1035F000491620E8722E780ECD1700F58C2E912CEE
:10360000F401E853FE4F9081F60181818923A1F0F6
:10361000609156047091570480915804E12E0C2F4C
:10362000272D4F2DF50109950E947018462F282F40
:10363000672FC4010E945C19CF5FDECF81E0DF33CA
:1036400008F080E0DF91CF911F910F91FF90EF90F4
:10365000DF90CF90BF90AF909F908F907F90089514
:103660006DEF76E10C94CA1A6BE277E10C94CA1AFA
:103670006DE577E10C94CA1AAF92BF92CF92DF92B8
:10368000EF92FF920F931F93CF93DF938C017B01F7
:10369000FC01C0818DE0C89FC02D1124DDE0DC0F4E
:1036A000D03408F0DFE32091590431E0230F08F40F
:1036B0002FEF30E040E050E06FEF7FEF80E090E0F0
:1036C0000E9428326901CD1708F041C0AC2EB12C00
:1036D000F501E853FE4F9081F80181818923A9F11A
:1036E00090915F04915097FD15C0292F092E000C71
:1036F000330BF901E15AFB4F8189C813F3CF220F35
:10370000331FF901E15AFB4F218D328D2C153D05F8
:1037100048F701C096016091590441E0640F08F434
:103720006FEFC9010E940E16AC01609156047091B2
:10373000570480915804F70109950E947018462F8C
:10374000282F672FC5010E945C19CF5FBCCF81E095
:10375000DF3308F080E0DF91CF911F910F91FF9050
:10376000EF90DF90CF90BF90AF90089560ED77E13C
:103770000C943C1B67ED77E10C943C1BDF92EF92BD
:10378000FF920F931F93CF93DF938C01DC018C91F9
:10379000CDE08C9FC02D1124DDE0DC0FD03408F08B
:1037A000DFE36091560470915704809158040E94A1
:1037B0007018F62EE72ED82ECD1798F4EC2FF0E0E7
:1037C000DF01A853BE4F8C91D80111969C9198238C
:1037D00031F02D2D4F2D6E2DCF010E945C19CF5F42
:1037E000EBCF81E0DF3308F080E0DF91CF911F91D4
:1037F0000F91FF90EF90DF900895AF92BF92CF921C
:10380000DF92EF92FF920F931F93CF93DF938C0180
:10381000FC01C0818DE0C89FC02D1124DDE0DC0FCC
:10382000D03408F0DFE3E0905704F0905804D090D3
:1038300056046D2D7E2D8F2D0E947018C62EB72E2A
:10384000A82E609159046D0D7E2D8F2D0E94701849
:10385000F62EE72ED82ECD17B8F48C2F90E0FC0171
:10386000E853FE4F3081F8012181232359F030FFC6
:1038700004C02D2D4F2D6E2D03C02A2D4C2D6B2DE8
:103880000E945C19CF5FE7CF81E0DF3308F080E072
:10389000DF91CF911F910F91FF90EF90DF90CF902C
:1038A000BF90AF900895BF92CF92DF92EF92FF92B8
:1038B0000F931F93CF93DF937C01FC01C0818DE0B8
:1038C000C89FC02D1124DDE0DC0FD03408F0DFE309
:1038D000C0905704B09058042091590430E4D32E7E
:1038E0003D2D329F312D1124D32ECD1738F50C2FBD
:1038F00010E0F801E853FE4F9081F70181818923A0
:10390000D9F0F801EE0FFF1FE65BFE4F6081D69EF7
:10391000B001112495E0759567959A95E1F780912E
:103920005604680F7C2D8B2D0E947018462F282F6F
:10393000672FC8010E945C19CF5FD7CF81E0DF33CA
:1039400008F080E0DF91CF911F910F91FF90EF90F1
:10395000DF90CF90BF900895DF92EF92FF920F9388
:103960001F93CF93DF938C01DC01CC918DE0C89F36
:10397000C02D1124DDE0DC0FD03408F0DFE3E0904F
:103980005604F0905704D0905804609159046695FD
:103990006695669580915B0490915C040E940E167A
:1039A0000E944916805887FD8195880F282F3D2D4C
:1039B000239F212D1124822FB7010E947018F62E0B
:1039C000E72ED82ECD1798F4EC2FF0E0DF01A853A6
:1039D000BE4F8C91D80111969C91982331F02D2DDA
:1039E0004F2D6E2DCF010E945C19CF5FEBCF81E090
:1039F000DF3308F080E0DF91CF911F910F91FF90AE
:103A0000EF90DF900895DF92EF92FF920F931F9354
:103A1000CF93DF93EC01FC01E853FE4F90816923C3
:103A200081F1D09057040091580410915604E12E72
:103A3000F12C0E94BB32282FC7018C549F4F68E69F
:103A400071E00E9414328E199F0997FD0396959597
:103A50008795959587952370612F289F600D112478
:103A60007D2D802F0E947018462F282F672FCE01A2
:103A7000DF91CF911F910F91FF90EF90DF900C9409
:103A80005C19DF91CF911F910F91FF90EF90DF9024
:103A90000895CF92DF92FF920F931F93CF93DF93FE
:103AA0008C01FC01C281C1111DC06091590420E14B
:103AB000620F08F46FEF80915B0490915C040E94A8
:103AC0000E166AE070E00E940032892B59F50E94C0
:103AD000BB326FE370E00E941432F80161810E94F2
:103AE000031D20C0FC018081CDE08C9FC02D1124DE
:103AF0009DE0F92EFC0EFFE3FF1510F48FE3F82E86
:103B0000D0E0CF2CD12CCC15DD053CF4F80161813F
:103B1000CE010E94031D2196F6CFC1E0FEE3FF1502
:103B200008F4C0E08C2FDF91CF911F910F91FF908F
:103B3000DF90CF9008951F93CF93DF93FC01E8535C
:103B4000FE4F20816223D1F0EC010E94BB32182F7E
:103B50000E94BB328F77782F20E8720F08F47FEF36
:103B6000612F809158040E947018462F282F672FCC
:103B7000CE01DF91CF911F910C945C19DF91CF9111
:103B80001F910895CF92DF92FF920F931F93CF93CF
:103B9000DF938C01FC01C281C1111DC060915904E9
:103BA00020E1620F08F46FEF80915B0490915C0458
:103BB0000E940E1665E070E00E940032892B59F5D4
:103BC0000E94BB326FE370E00E941432F801618101
:103BD0000E949B1D20C0FC018081CDE08C9FC02DE8
:103BE00011249DE0F92EFC0EFFE3FF1510F48FE386
:103BF000F82ED0E0CF2CD12CCC15DD053CF4F8010B
:103C00006181CE010E949B1D2196F6CFC1E0FEE3AB
:103C1000FF1508F4C0E08C2FDF91CF911F910F9119
:103C2000FF90DF90CF900895DF92EF92FF920F9375
:103C30001F93CF93DF938C01DC01CC918DE0C89F63
:103C4000C02D1124DDE0DC0FD03408F0DFE3E0907C
:103C50005704F0905804D09056046091590466952A
:103C60006695669580915B0490915C040E940E16A7
:103C70000E944916805887FD8195880F682F2CE097
:103C8000629F612D11246D0D7E2D8F2D0E940A16CD
:103C9000F62EE72ED82ECD1798F4EC2FF0E0DF01AA
:103CA000A853BE4F8C91D80111969C91982331F066
:103CB0002D2D4F2D6E2DCF010E945C19CF5FEBCFC4
:103CC00081E0DF3308F080E0DF91CF911F910F9109
:103CD000FF90EF90DF900895E091A602F091A70287
:103CE00009942F923F924F925F926F927F928F92A0
:103CF0009F92AF92BF92CF92DF92EF92FF920F937B
:103D00001F93CF93DF93CDB7DEB72B970FB6F89401
:103D1000DEBF0FBECDBF5C01DC018C910DE0809F4A
:103D2000002D1124BDE0B00FB987B73410F0E6E4E0
:103D3000E987D50112968C91882361F040E060E01C
:103D400080E00E946C1E86E4E2E9F3E0DF011D9250
:103D50008A95E9F7F5018081811115C08091D90319
:103D60009091DA030E94C02A21E08931910508F47C
:103D700020E02093D803499730F00E94A82A90931E
:103D8000DA038093D90310E09985892F90E09B870F
:103D90008A878EE0482EDE0111963D019AEA292E8F
:103DA0008A859B85081719070CF064C0C80165E077
:103DB00070E00E9414327B014C01489EF001499E44
:103DC000F00D1124EE56FC4FE60FF71F5080A301B3
:103DD0000E943919382E63018C2D8619831508F03D
:103DE00032C0D601EC91F0E0E853FE4F9081F5012E
:103DF0008181892321F1252D35E5231B08F420E05D
:103E0000622D621B70915704222D352D230F08F46B
:103E10002FEF3091580482E0289F200D11242E5F4F
:103E2000239F212D1124822F0E947018462FD60126
:103E30009C91282F672F892F90E00E945C19BFEF7B
:103E4000CB1ADB0AC9CF8091D803882381F0252DB6
:103E500031E0231B08F420E0489CC001499C900DF0
:103E600011248E569C4FFC01EE0DFF1D20830F5F29
:103E70001F4F96CF81E09985963408F080E02B960D
:103E80000FB6F894DEBF0FBECDBFDF91CF911F916B
:103E90000F91FF90EF90DF90CF90BF90AF909F90E9
:103EA0008F907F906F905F904F903F902F900895EC
:103EB000AF92BF92DF92EF92FF920F931F93CF9337
:103EC000DF93CDB7DEB728970FB6F894DEBF0FBEED
:103ED000CDBFE82ED62E142F0E94540E882309F44D
:103EE00078C0112349F0AE014F5F5F4F6D2D8E2DCD
:103EF0000E943919F82E01C0F12C0F2D10E080918D
:103F000063039801280F311D293031056CF188E0D9
:103F100090E05C01A01AB10AB8016C597C4FA50170
:103F200084E693E00E94D832B80164597C4FA50121
:103F30008CE693E00E94D832A501440F551FB801CA
:103F4000660F771F64587C4F8CE793E00E94D8324D
:103F5000B8016C587C4FA50184E793E00E94D832E9
:103F600088E08F198093630310916303DE0111963B
:103F700040E0842F810FF41609F190E05D91252F28
:103F800030E0BC016D597C4FF901EE0FFF1FE65B7D
:103F9000FE4F0081FB010183220F331FF901E55B16
:103FA000FE4F2081FB012187518B880F991FFC0157
:103FB000ED59FC4F128E118E4F5FDBCF8093630360
:103FC000809155048C7F803621F46D2D8E2D0E94BA
:103FD000731828960FB6F894DEBF0FBECDBFDF91E1
:103FE000CF911F910F91FF90EF90DF90BF90AF9016
:103FF000089580915B0490915C04A0915D04B09160
:104000005E0488279C70AA27BB272AE0B695A7954F
:10401000979587952A95D1F782309105A105B1052D
:1040200071F083309105A105B10569F040E0019779
:10403000A105B10511F060E008C064E102C044E1EF
:1040400060E080E003C044E164E184E10C946C1E14
:10405000CF93C82F809115028C130DC02091550469
:10406000237030E04091160250E081E024173507BC
:1040700019F480E001C081E0817080931402809186
:104080005A0490911302981739F08093130240E07C
:1040900060E080E00E946C1ECD3021F582E192E06C
:1040A0000E94531A0BC0C33008F040C0CC2369F102
:1040B000C130B1F582E192E00E94BE1B90911202E4
:1040C0009F5F909312028111D3C082E0809311020E
:1040D000809114028111CCC0C111CAC083E08093C9
:1040E0001102C6C0CE3008F05EC0C63029F482E1AD
:1040F00092E00E944F1AE2CFC73058F5C23099F6CD
:1041000082E192E00E94FD1BD9CF809114028823A6
:1041100029F040E060E080E00E946C1E80E0CECF9D
:10412000809112028F5F80931202CFCFC43029F4A6
:1041300082E192E00E94AC1CC1CFC53028F482E13C
:1041400092E00E94531CBACF82E192E00E94AE1A24
:10415000B5CFC93029F482E192E00E94B61AAECF01
:10416000CA3070F4C73029F482E192E00E94E2196B
:10417000A5CFC830A9F682E192E00E94B21A9ECF84
:10418000CB3029F482E192E00E94BE1A97CFCC3066
:1041900028F482E192E00E94BA1A90CF82E192E084
:1041A0000E94E6198BCFC43129F482E192E00E948B
:1041B000C21D84CFC53158F5C03129F482E192E0A7
:1041C0000E94301B7BCFC13178F4CE3029F482E1DC
:1041D00092E00E94571A72CFCF3009F0A1CF82E14E
:1041E00092E00E94EA196ACFC23129F482E192E09A
:1041F0000E94381B63CFC33128F482E192E00E9411
:10420000341B5CCF82E192E00E94491D57CFC83138
:1042100029F482E192E00E94711E50CFC93198F4D6
:10422000C63129F482E192E00E94C21A47CFC73119
:1042300028F482E192E00E94141E40CF82E192E0D5
:104240000E94C61A3BCFCA3129F482E192E00E9453
:10425000BA1B34CFCA3128F482E192E00E94B61B27
:104260002DCFCF3F09F05CCF0E94F91F82E037CFFE
:10427000CF91089508950C943A210E943B210C940B
:104280000C0308950C944121CF93DF93FC01C0816E
:10429000C1508DE0C89FC02D1124DDE0DC0FD0346B
:1042A00008F0DFE36D2F8C2F0E9442216D2F8C2FA1
:1042B000DF91CF910C9441214F925F926F927F9248
:1042C0008F929F92AF92BF92CF92DF92EF92FF9226
:1042D000CF9360918C0370918D0380918E039091A8
:1042E0008F030E94CF2A6B017C010E94B42A4B01EC
:1042F0005C0160938C0370938D0380938E03909385
:104300008F03A0916303E3E6F3E08A2F90E04FEF81
:104310005FEF60E070E04C195D096E097F09A91735
:1043200099F0218D328D2901612C712C4415550590
:104330006605770510F4815004C02C0D3D1D328FA9
:10434000218F9F5F3296EBCF80936303809191031F
:10435000811108C0C09155048C2F837019F0C69547
:10436000C69501C0C0E0809111028130D9F028F0DB
:10437000823081F18330D9F152C0109212028092C2
:104380005B0490925C04A0925D04B0925E0489E2AA
:10439000E3E6F3E0AFE5B4E001900D928A95E1F732
:1043A00081E022C08C2F0E942820CC23C1F10E94E2
:1043B0003D2182E192E0CF91FF90EF90DF90CF908E
:1043C000BF90AF909F908F907F906F905F904F9035
:1043D0000C944421C09315028091550483708093FE
:1043E00016020E94571983E08093110218C0809131
:1043F000900381110E941C191092900360915B043C
:1044000070915C0480915D0490915E040E94CF2ABB
:10441000603171058105910510F010921102CF9164
:10442000FF90EF90DF90CF90BF90AF909F908F90D4
:104430007F906F905F904F900895E091A202F0916D
:10444000A302099510925F04E8E7F4E08FEF9FEF75
:104450008193919324E0E838F207D1F71092630337
:10446000ECE7F3E08FEF9FEF8193919323E0EC383B
:10447000F207D1F70E948B0D811104C00E94330E08
:104480000E9424190E941419809155048C7F11F404
:104490000C9424190895CF93C82F882391F080910C
:1044A000910381110EC00E94282010921502809164
:1044B00055048370809316020E94571983E08093FD
:1044C0001102C0939103CF910895E5E5F4E02081B6
:1044D00091E0922790831092110290919003892B82
:1044E00080939003089581E00C9465229091550487
:1044F0009370A1F0811102C0946007C08B3110F05D
:10450000986603C0880F880F982B909355041092DB
:10451000110280919003682B60939003089561E0ED
:104520000C947622682F90915504969596959F5FEE
:104530009B3110F4892F01C081E00C94762281E038
:104540000C949222682F90915504969596959150CF
:1045500011F0892F01C08AE10C94762281E00C943D
:10456000A22290915504937059F080935604609361
:1045700057044093580480919003282B2093900374
:104580000895A5E5B4E01196EC911197F0E0282F7D
:1045900013964C91139712966C91CF0108960C9438
:1045A000B12281E00C94C122A5E5B4E01196EC9112
:1045B0001197F0E0282F13964C91139712966C9157
:1045C000CF0108970C94B12281E00C94D422E5E548
:1045D000F4E0628120E1620F08F46FEF9181282FEF
:1045E0004381892F90E00C94B12281E00C94E72262
:1045F000E5E5F4E0628120E1621B08F460E091816E
:10460000282F4381892F90E00C94B12281E00C94F3
:10461000F822E5E5F4E0438120E1420F08F44FEF92
:104620009181282F6281892F90E00C94B12281E042
:104630000C940923E5E5F4E0438120E1421B08F4F2
:1046400040E09181282F6281892F90E00C94B12263
:1046500081E00C941A238093590480919003682B75
:104660006093900308952091590430E1230F08F4DA
:104670002FEF682F822F0C942B2381E00C9433238F
:104680002091590430E1231B08F420E0682F822F89
:104690000C942B2381E00C94402360E080E50E9481
:1046A000E82461E080E50C94E824CF930E94192867
:1046B00060E080E50E94B123C0E021E041E061E0DC
:1046C0008C2F0E944624CF5FCF33B9F760E080E59E
:1046D0000E941A2561E080E5CF910C941A25609321
:1046E00008064093090624E630E042E050E068E026
:1046F00076E0880F0E94D02821E0892B09F020E085
:10470000822F0895EF92FF921F93CF93DF937B0147
:10471000182F110FC0E0D0E0C0930806D701AC0FEE
:10472000BD1FE9E0F6E08D91819386E0E931F8075D
:10473000D1F724E630E041E150E068E076E0812FF7
:104740000E94D028892B31F46096C03CD10521F716
:1047500081E001C080E0DF91CF911F91FF90EF9049
:1047600008951F93CF93DF93C82FD62F45EC6EEF9C
:104770000E946F2340E06DEF8C2F0E946F2310E0AA
:1047800040E0612F8C2F0E946F231F5F1831C1F70B
:1047900045EC6EEF8C2F0E946F2341E06DEF8C2F64
:1047A0000E946F2310E040E0612F8C2F0E946F2346
:1047B0001F5F103CC1F745EC6EEF8C2F0E946F23FA
:1047C00043E06DEF8C2F0E946F234FEF61E08C2F41
:1047D0000E946F2380E4D89FA0011124416060E013
:1047E0008C2F0E946F238FE39CE90197F1F700C0A3
:1047F0000000DF91CF911F9108958F33910558F5F7
:10480000FC01EE0FFF1FEE0FFF1FDF01AC50BF4F8B
:10481000CD010296FC0154910196FC013491FD01F9
:10482000859183707491E82FF0E0A0EC8A9FC0011D
:10483000112488579B4FDC01A70FB11D6C93DC013D
:10484000A50FB11D4C93DC01A30FB11D2C93E35FA9
:10485000FB4F81E080830895FF920F931F93CF93C6
:10486000DF93182F062FF42EC0E0D0E02F2D402F1D
:10487000612FCE010E94FD232196CF33D105B1F7E0
:10488000DF91CF911F910F91FF900895CF93DF9308
:1048900034E0839FC0011124EC01CC50DF4FDE01D6
:1048A000FE0111968591837054911196FD019491AA
:1048B0003196C491A52FA695A695A695392F369524
:1048C00036953695EC2FE695E695E6955770F92FD7
:1048D000F770C77090E0B0E0D8E1662391F0D89F00
:1048E000B001D99F700D112463527C4FA60FB71FE2
:1048F00061E070E001C0660F5A95EAF75C91652BA4
:1049000012C0D89FB001D99F700D112463527C4F03
:10491000A60FB71F61E070E001C0660F5A95EAF775
:1049200060955C9165236C93632F70E038E1389F4C
:10493000D001399FB00D1124A352BC4FA60FB71F51
:10494000442349F041E050E001C0440FFA95EAF7F2
:104950003C91432B09C041E050E001C0440FFA955F
:10496000EAF740953C9143234C934E2F50E022238D
:1049700099F028E1289FF001299FF00D1124E352BE
:10498000FC4FE40FF51F21E030E001C0220FCA9573
:10499000EAF73081232B13C028E1289FF001299FDB
:1049A000F00D1124E352FC4FE40FF51F21E030E03D
:1049B00001C0220FCA95EAF7209530812323208376
:1049C000FC01E552FC4F21E02083DF91CF91089557
:1049D000EF92FF921F93CF93DF93C62FD0E09E01FB
:1049E000235F3B4F7901F90190819923D9F0182F6A
:1049F00045EC6EEF0E946F2341E06DEF812F0E9426
:104A00006F2380EC8C9FB0018D9F700D112468572F
:104A10007B4F812F0E948223811104C0C552DC4F3D
:104A200081E08883F7011082DF91CF911F91FF9081
:104A3000EF900895CF92DF92FF920F931F93CF9341
:104A4000DF93262F30E0A90145525C4F6A01FA013D
:104A5000908191110AC0F6011082DF91CF911F91D0
:104A60000F91FF90DF90CF900895C62FF82E45EC60
:104A70006EEF0E946F2340E06DEF8F2D0E946F2339
:104A8000F8E1CF9FE001112400E010E0F801EC0F05
:104A9000FD1FE352FC4F4081602F8F2D0E946F233A
:104AA0000F5F1F4F0831110589F7D5CF882311F00B
:104AB000FA0101C0FB0109941F93CF93DF93FB011F
:104AC0001281112309F48CC0EC010E94D30C827274
:104AD000CB3CFCE5DF0709F46EC048F5C63CECE5CD
:104AE000DE0709F454C070F4C43C9CE5D90709F40E
:104AF00042C008F045C0C33CDC4509F074C00E94C8
:104B0000732270C0C83C9CE5D90709F44AC008F478
:104B100043C0C93CFCE5DF0709F448C0CA3CDC459A
:104B200009F061C048E253E267E173E22DC0C03D85
:104B3000ECE5DE0709F450C088F4CD3C9CE5D907CC
:104B400009F443C0E8F1CE3CFCE5DF0709F442C0BC
:104B5000CF3CDC4509F047C084E03FC0C73D9CE541
:104B6000D90728F4C23DDC45E8F58EE036C0CE35E5
:104B7000DD45C1F138C04EEA52E26FE972E204C08D
:104B80004FE952E26EEA72E20E9456252BC044EED3
:104B900052E261ED72E2F8CF41ED52E264EE72E270
:104BA000F3CF46E053E265EF72E2EECF45EF52E21B
:104BB00066E073E2E9CF47E153E268E273E2E4CFF3
:104BC0004AE453E26DE373E2DFCF4DE353E26AE47C
:104BD00073E2DACF81E001C089E00E948F2202C037
:104BE00011E001C010E0812FDF91CF911F91089556
:104BF0000F931F93CF93DF93C42FD22FFC01828199
:104C00008823C9F0409311040E94A82A90931004AD
:104C100080930F0480E28C0F883008F057C0C77073
:104C200081E001C0880FCA95EAF7DF91CF911F910B
:104C30000F910C94E80480911104481330C08091C6
:104C40000F04909110040E94C02A883C910538F509
:104C500010E21D0FCD17B9F080E28C0F883040F4C0
:104C6000C77081E001C0880FCA95EAF70E94EF047F
:104C7000183028F581E09D2F977001C0880F9A9514
:104C8000EAF70E94E804802F0E94DF041830F0F455
:104C9000D77081E001C0880FDA95EAF70AC080E298
:104CA0008C0F883098F4C77081E001C0880FCA95D6
:104CB000EAF7DF91CF911F910F910C94EF04802FB1
:104CC000DF91CF911F910F910C94DF04DF91CF9171
:104CD0001F910F9108950F939C01CB01243F4CE548
:104CE000340731F188F4293DFCE53F07D9F02A3D2E
:104CF0004CE5340779F1283D3C45A9F506E221EE63
:104D000041EE68ED7CE52BC0263FFCE53F07E1F076
:104D1000A8F0273F3C4539F507E225EE46EE67EF60
:104D20007CE51DC007E225EE45EE69ED7CE517C088
:104D300006E221EE40EE64EF7CE511C007E225EECD
:104D400044EE65EF7CE50BC006E221EE42EE66EF35
:104D50007CE505C008E221E045EE6AED7CE50E94B5
:104D6000F82580E008C0FC018281882319F01092A8
:104D7000110401C081E00F910895CF93DF93EC01FE
:104D8000FB018281882309F41FC1C230FCE5DF07E3
:104D900008F41BC1C6319CE5D90738F09E012B5F92
:104DA0003C452930310508F010C10E949E0D9093BA
:104DB000400480933F04C031ECE5DE0709F4C3C032
:104DC00008F041C0C8308CE5D80709F49AC0F0F467
:104DD000C430ECE5DE0709F487C068F4C2308CE526
:104DE000D80709F477C0C330DC4509F0E3C08091EF
:104DF0003F04826076C0C630ECE5DE0709F46EC081
:104E000008F07BC080913F0488606BC0CC308CE59B
:104E1000D80709F485C068F4CA30ECE5DE0709F468
:104E200074C008F079C00E946C0780913F048068CC
:104E300058C0CE308CE5D80709F476C008F07FC0A2
:104E400080913F048BC0CC3FECE5DE0709F44FC0F6
:104E500018F5C3318CE5D80709F47DC078F4C13169
:104E6000ECE5DE0709F473C0C231DC4509F0A2C0ED
:104E70000E946C0780913F048F7733C0C5318CE569
:104E8000D80709F472C008F486C0CB3FDC4509F0AE
:104E900091C0809140043EC0C115FDE5DF0709F4D3
:104EA0005FC058F4CE3F9CE5D90709F444C008F42C
:104EB0003FC08091400482602DC0C230FDE5DF0715
:104EC00009F475C008F45DC0C330DD4509F072C057
:104ED00080E06EC080913F04816003C080913F04F8
:104EE000806180933F0466C080913F0411C080912F
:104EF00040048260809340045DC080913F048062E2
:104F0000F0CF80913F048064ECCF80913F048860B3
:104F10008460E7CF8160EECF80913F048E7FE1CF48
:104F200080913F048D7FDDCF80913F04877FD9CF73
:104F30008091400418C0809140048D7FDBCF809128
:104F40003F048F7ECECF80913F048F7DCACF80916A
:104F50003F048F7BC6CF80913F04877F8B7FC1CF7B
:104F6000809140048D7F8E7FC5CF80913F0482FB6E
:104F7000222720F991E0922790FB82F990FB83F998
:104F8000B0CF80914004982F909591708E7F892B9F
:104F900090FB81F9AFCF0E946C0780913F0487FBA3
:104FA000222720F991E0922790FB87F99ACF81E0A0
:104FB0000E94350E80913F04909140040E94AF0DF5
:104FC0000E946C0780E001C081E0DF91CF910895DD
:104FD000CF93DF9386319C4541F5EB010E94D30CC2
:104FE000982F8A812091070230910802882379F056
:104FF0009A7A81E009F480E080931204911102C052
:1050000069E201C065E3C9010E94F5290AC08091E7
:105010001204811102C069E201C065E3C9010E9466
:10502000002A0E94180D80E001C081E0DF91CF913D
:1050300008951092B9008CE08093B80008959F9273
:10504000AF92BF92CF92DF92EF92FF920F931F9396
:10505000CF93DF93B82EEB010E94A82A6C01C431D4
:10506000D10558F0CF3F8FEFD80759F0CE0164E15A
:1050700070E00E9400327B0107C0EE24E394F12C23
:1050800003C025E0E22EF12C84E8A82E94EA992EA4
:105090001092BC009092BC000E94A82A8C018091C2
:1050A000BC0087FD08C00E94A82A801B910B8E15AA
:1050B0009F05A8F32AC08091B900887F883041F00D
:1050C0008091B900887F803119F00FEF1FEF1FC06A
:1050D000B092BB00A092BC000E94A82A8C018091D3
:1050E000BC0087FD08C00E94A82A801B910B8E156A
:1050F0009F05A8F30AC08091B900887F883111F01C
:10510000803419F700E010E00EC00EEF1FEFCF3F24
:105110008FEFD80709F4BCCFC6010E94C02A8C17B4
:105120009D0708F4B5CFC801DF91CF911F910F9172
:10513000FF90EF90DF90CF90BF90AF909F90089539
:105140000F931F93CF93DF93EB018093BB0084E811
:105150008093BC000E94A82A8C018091BC0087FD2E
:105160000EC0CF3F8FEFD807C1F30E94A82A801B43
:10517000910B8C179D0788F38EEF9FEF0CC0209149
:10518000B900287F81E090E0283211F480E090E0BF
:10519000919581959109DF91CF911F910F9108957C
:1051A000CF92DF92EF92FF920F931F93CF93DF93F3
:1051B0006B018A017901B9010E941F28E6010C0DDB
:1051C0001D1DC017D10761F424E92093BC00DF91B5
:1051D000CF911F910F91FF90EF90DF90CF900895A6
:1051E00097FDF2CFB70189910E94A028EACF909352
:1051F0001804809317040895E0911704F09118049F
:10520000309721F00190F081E02D099480E008951D
:105210000E94FC280895E0911704F091180430973B
:1052200099F020912102222359F020913F0427FF79
:1052300007C0DC012C9111962C93119725E02C933B
:105240000280F381E02D09940895E0911704F09114
:105250001804309739F022E0DC012C930480F581AA
:10526000E02D099408952091150430911604281713
:10527000390771F09093160480931504E091170498
:10528000F0911804309721F00680F781E02D099401
:10529000089520911304309114042817390771F0F0
:1052A0009093140480931304E0911704F091180470
:1052B000309721F00084F185E02D09940895FC01D8
:1052C000329680912102882331F080913F0487FF3C
:1052D00002C09EE101C096E080E0915028F021914B
:1052E0002223D9F38F5FF9CF0895662351F12091DE
:1052F00021022223E9F020913F0427FF19C0462F05
:105300004695469546954E31E0F4677021E030E0D1
:1053100002C0220F331F6A95E2F7FC01E40FF11D72
:10532000828190E02823392381E0232B69F409C08E
:10533000FC01329608962191621729F0E817F907C7
:10534000D1F780E0089581E008959C01FC01329638
:105350009FEF80E04191461789F09F3F19F441117A
:1053600001C0982F8F5F8630A9F79F3F39F0F90170
:10537000E90FF11D97FDFA956283089508959C0148
:105380002A5F3F4FFC014281461301C01282019601
:1053900082179307B9F70895262F26952695269507
:1053A0002E3168F4FC01E20FF11D677021E030E05E
:1053B00001C0220F6A95EAF78281282B2283089583
:1053C000262F2695269526952E3170F4FC01E20FA6
:1053D000F11D677021E030E001C0220F6A95EAF705
:1053E000209582812823228308952091210222235F
:1053F00029F020913F0427FD0C94CC290C94A52979
:1054000020912102222329F020913F0427FD0C94B2
:10541000E0290C94BF2920912102FC01329622231D
:1054200031F080913F0487FF02C08EE101C086E029
:10543000DF011D928A95E9F70895089508950C9467
:105440001E2A0C941E2ACF930E94212A0E945612D3
:105450000E941F2AC0E08C2F0E947911892B29F409
:10546000CF5FC530C1F780E001C081E0CF910895E2
:105470000C941E2A80912406843061F10E9402035C
:1054800080E00E94E50381E00E944B221092190403
:1054900020E488E190E00FB6F894A895809360002E
:1054A0000FBE2093600083B7817F846083BF83B782
:1054B000816083BF7894889583B78E7F83BF0FB652
:1054C000F894A895809160008861809360001092A4
:1054D00060000FBE08950E946C070E94FC280E9485
:1054E000E50380E00E944B220C9407031F920F9269
:1054F0000FB60F9211248F939F93AF93BF93809118
:105500001904811113C080911C0690911D06A09171
:105510001E06B0911F064196A11DB11D80931C0669
:1055200090931D06A0931E06B0931F06BF91AF91E6
:105530009F918F910F900FBE0F901F90189582E052
:1055400084BD93E095BD9AEF97BD80936E0008955A
:105550002FB7F89480911C0690911D06A0911E060D
:10556000B0911F062FBF08952FB7F89460911C06C5
:1055700070911D0680911E0690911F062FBF089501
:105580009C014FB7F89480911C0690911D06A09144
:105590001E06B0911F064FBF821B930B0895CF923A
:1055A000DF92EF92FF922FB7F894C0901C06D09034
:1055B0001D06E0901E06F0901F062FBFA701960162
:1055C000261B370B480B590BCA01B901FF90EF900E
:1055D000DF90CF90089578941F920F920FB60F929C
:1055E00011248F939F93AF93BF9380911C0690914A
:1055F0001D06A0911E06B0911F060196A11DB11DAA
:1056000080931C0690931D06A0931E06B0931F0660
:10561000BF91AF919F918F910F900FBE0F901F90F0
:10562000189581E08093E00080E28093D80010928A
:10563000C9008FE19EE40197F1F700C0000087E008
:1056400090EBDC0180932D0690932E06A0932F06FD
:10565000B09330069CE088E10FB6F894A89580934B
:1056600060000FBE90936000FFCF9093AB028093D9
:10567000AA02089580913D040895909124069430E3
:1056800031F580931A0470931C0460931B0482E02C
:105690008093E9008FEF9091E800815095FD06C05E
:1056A00095ED9A95F1F700008111F5CF8091E80012
:1056B00085FF0DC040E050E063E070E08AE194E0D7
:1056C0000E94622D8091E8008E778093E800089513
:1056D000BC0184E00C943D2BBC0183E00C943D2B79
:1056E00022E02093E9002FEF3091E800215035FDB2
:1056F00006C035ED3A95F1F700002111F5CF209164
:10570000E80025FF0BC040E050E066E070E00E943A
:10571000622D8091E8008E778093E8000895CF9302
:10572000DF9320912102222339F020913F0427FFAB
:1057300003C060E222E002C068E021E02093E900BB
:105740002FEF3091E800215035FD06C035ED3A9538
:10575000F1F700002111F5CF2091E80025FF1DC0D1
:10576000EC0180912102811105C040E050E068E029
:1057700070E003C070E040E050E0CE010E94622D76
:105780008091E8008E778093E80080E2FE01ADE131
:10579000B4E001900D928A95E1F7DF91CF910895E1
:1057A00080912306811109C00E94F32E0E94502F80
:1057B0008091E20084608093E200089510922306B5
:1057C000089508950895089542E061EC81E00E94F3
:1057D0006C2E42E261EC82E00C946C2E80912606E5
:1057E000833009F460C030F4813071F0823009F404
:1057F00099C008958A3009F485C08B3009F46BC0D4
:10580000893009F0A7C020C080912506813A09F0AF
:10581000A1C08091E800877F8093E80080912906ED
:1058200090912A06892B21F460E28DE194E003C077
:1058300060E080E090E070E00E94AD2D8091E80093
:105840008B778093E800089580912506813209F0D6
:1058500081C08091290690912A06029708F07AC0AB
:105860008091E800877F8093E8008091E80082FDC6
:1058700005C0809124068111F8CF6CC02091F300FF
:105880008091F20090E0922B029729F48091F10030
:105890008B7F813021F48091F10080933D048091D1
:1058A000E8008B7753C080912506813A09F052C0F9
:1058B0008091290690912A06892B09F04BC080918E
:1058C000E800877F8093E8008091E80080FFFCCFAC
:1058D0008091210236C0809125068132D9F58091D0
:1058E000290690912A06892BA9F58091E800877FE7
:1058F0008093E8000E94A12E8091270680932102C8
:105900000C946C0780912506813221F58091E80086
:10591000877F8093E8000E94A12E809128068093C3
:105920003E04089580912506813AA1F48091E80013
:10593000877F8093E8008091E80080FFFCCF809112
:105940003E048093F1008091E8008E778093E80018
:105950000C94A12E089584B7877F84BF0FB6F89466
:10596000A89580916000886180936000109260002B
:105970000FBE90E080E80FB6F8948093610090939A
:1059800061000FBE0C94650E0E94F32E0E94502FF2
:10599000E2EEF0E080818460808378940E94E531BB
:1059A0000E94730E87E192E00C94F7288091240600
:1059B0008530A9F480912406853079F40E943A2A32
:1059C000809122068823B1F30E94232A882391F331
:1059D0000E944C2D0E946C07EDCF0E946B2A0C9404
:1059E000790E0C94F32C292F332723303105C9F07D
:1059F00060F42130310581F02230310509F044C0D6
:105A00008BE390E02EE234E043C021323105E1F037
:105A10002232310549F138C082E190E029E634E0D4
:105A200037C099278130910549F028F0029761F538
:105A3000E8E0F4E005C0EAE2F4E002C0EAE1F4E004
:105A4000849190E09F0124C06115710541F061309F
:105A50007105D1F489E090E029E534E019C089E0CE
:105A600090E020E434E014C06115710541F061302C
:105A7000710551F486EB90E02BE734E009C080E437
:105A800090E021E335E004C080E090E020E030E0E9
:105A9000FA0131832083089580E189BD82E189BDC7
:105AA00009B400FEFDCF8091D8008F7D8093D8008F
:105AB0008091E00082608093E0008091E00081FDB1
:105AC000FCCF0895CF92DF92EF92FF920F931F9336
:105AD000CF93DF93EC018B017A010E94C02E8111DC
